{
    "contractName": "ModelVoting",
    "abi": [
        {
            "inputs": [
                {
                    "internalType": "address[]",
                    "name": "_experts",
                    "type": "address[]"
                }
            ],
            "stateMutability": "nonpayable",
            "type": "constructor"
        },
        {
            "anonymous": false,
            "inputs": [
                {
                    "indexed": false,
                    "internalType": "uint256",
                    "name": "modelId",
                    "type": "uint256"
                },
                {
                    "indexed": false,
                    "internalType": "string",
                    "name": "ipfsHash",
                    "type": "string"
                },
                {
                    "indexed": false,
                    "internalType": "address",
                    "name": "submitter",
                    "type": "address"
                }
            ],
            "name": "ModelSubmitted",
            "type": "event"
        },
        {
            "anonymous": false,
            "inputs": [
                {
                    "indexed": false,
                    "internalType": "uint256",
                    "name": "modelId",
                    "type": "uint256"
                },
                {
                    "indexed": false,
                    "internalType": "bool",
                    "name": "vote",
                    "type": "bool"
                },
                {
                    "indexed": false,
                    "internalType": "address",
                    "name": "voter",
                    "type": "address"
                }
            ],
            "name": "VoteCast",
            "type": "event"
        },
        {
            "inputs": [
                {
                    "internalType": "uint256",
                    "name": "",
                    "type": "uint256"
                }
            ],
            "name": "experts",
            "outputs": [
                {
                    "internalType": "address",
                    "name": "",
                    "type": "address"
                }
            ],
            "stateMutability": "view",
            "type": "function"
        },
        {
            "inputs": [
                {
                    "internalType": "uint256",
                    "name": "",
                    "type": "uint256"
                }
            ],
            "name": "models",
            "outputs": [
                {
                    "internalType": "string",
                    "name": "ipfsHash",
                    "type": "string"
                },
                {
                    "internalType": "address",
                    "name": "submitter",
                    "type": "address"
                },
                {
                    "internalType": "uint256",
                    "name": "yesVotes",
                    "type": "uint256"
                },
                {
                    "internalType": "uint256",
                    "name": "noVotes",
                    "type": "uint256"
                }
            ],
            "stateMutability": "view",
            "type": "function"
        },
        {
            "inputs": [
                {
                    "internalType": "uint256",
                    "name": "_modelId",
                    "type": "uint256"
                },
                {
                    "internalType": "bool",
                    "name": "_vote",
                    "type": "bool"
                }
            ],
            "name": "vote",
            "outputs": [],
            "stateMutability": "nonpayable",
            "type": "function"
        }
    ],
    "bytecode": "608060405234801561001057600080fd5b5060405161071d38038061071d83398101604081905261002f916100f5565b8051610042906000906020840190610049565b50506101b9565b82805482825590600052602060002090810192821561009e579160200282015b8281111561009e57825182546001600160a01b0319166001600160a01b03909116178255602090920191600190910190610069565b506100aa9291506100ae565b5090565b5b808211156100aa57600081556001016100af565b634e487b7160e01b600052604160045260246000fd5b80516001600160a01b03811681146100f057600080fd5b919050565b6000602080838503121561010857600080fd5b82516001600160401b038082111561011f57600080fd5b818501915085601f83011261013357600080fd5b815181811115610145576101456100c3565b8060051b604051601f19603f8301168101818110858211171561016a5761016a6100c3565b60405291825284820192508381018501918883111561018857600080fd5b938501935b828510156101ad5761019e856100d9565b8452938501939285019261018d565b98975050505050505050565b610555806101c86000396000f3fe608060405234801561001057600080fd5b50600436106100415760003560e01c80636a030ca914610046578063b7425f4c14610072578063c9d27afe1461009d575b600080fd5b6100596100543660046103ec565b6100b2565b6040516100699493929190610405565b60405180910390f35b6100856100803660046103ec565b610186565b6040516001600160a01b039091168152602001610069565b6100b06100ab366004610473565b6101b0565b005b600181815481106100c257600080fd5b90600052602060002090600502016000915090508060000180546100e5906104a8565b80601f0160208091040260200160405190810160405280929190818152602001828054610111906104a8565b801561015e5780601f106101335761010080835404028352916020019161015e565b820191906000526020600020905b81548152906001019060200180831161014157829003601f168201915b505050506001830154600284015460039094015492936001600160a01b039091169290915084565b6000818154811061019657600080fd5b6000918252602090912001546001600160a01b0316905081565b6101b933610383565b6102025760405162461bcd60e51b81526020600482015260156024820152744f6e6c7920657870657274732063616e20766f746560581b60448201526064015b60405180910390fd5b60018281548110610215576102156104e2565b600091825260208083203384526004600590930201919091019052604090205460ff16156102855760405162461bcd60e51b815260206004820152601b60248201527f416c726561647920766f746564206f6e2074686973206d6f64656c000000000060448201526064016101f9565b6001808381548110610299576102996104e2565b60009182526020808320338452600592909202909101600401905260409020805460ff1916911515919091179055801561030857600182815481106102e0576102e06104e2565b6000918252602082206002600590920201018054916102fe836104f8565b919050555061033f565b6001828154811061031b5761031b6104e2565b600091825260208220600360059092020101805491610339836104f8565b91905055505b604080518381528215156020820152338183015290517f4a341f5494c396c29c9e30033ec7900b3b51340ac726dc58726e583ea2aceeb29181900360600190a15050565b6000805b6000548110156103e357826001600160a01b0316600082815481106103ae576103ae6104e2565b6000918252602090912001546001600160a01b0316036103d15750600192915050565b806103db816104f8565b915050610387565b50600092915050565b6000602082840312156103fe57600080fd5b5035919050565b608081526000855180608084015260005b8181101561043357602081890181015160a0868401015201610416565b50600060a08285018101919091526001600160a01b039690961660208401526040830194909452506060810191909152601f909101601f19160101919050565b6000806040838503121561048657600080fd5b823591506020830135801515811461049d57600080fd5b809150509250929050565b600181811c908216806104bc57607f821691505b6020821081036104dc57634e487b7160e01b600052602260045260246000fd5b50919050565b634e487b7160e01b600052603260045260246000fd5b60006001820161051857634e487b7160e01b600052601160045260246000fd5b506001019056fea2646970667358221220d2e33d117635cd9d19fecd250f62fe8d354c8ad97da00dfbae756ad9f62ad35064736f6c63430008130033",
    "sourcePath": "/Users/ranxi/Library/CloudStorage/OneDrive-共享的库-onedrive/Project/Cremodeva/Smart Contract/ModelVoting.sol",
    "compiler": {
        "name": "solc",
        "version": "0.8.19+commit.7dd6d404"
    },
    "functionHashes": {
        "experts(uint256)": "b7425f4c",
        "models(uint256)": "6a030ca9",
        "vote(uint256,bool)": "c9d27afe"
    },
    "gasEstimates": {
        "creation": {
            "codeDepositCost": "273000",
            "executionCost": "infinite",
            "totalCost": "infinite"
        },
        "external": {
            "experts(uint256)": "4614",
            "models(uint256)": "infinite",
            "vote(uint256,bool)": "infinite"
        },
        "internal": {
            "isExpert(address)": "infinite"
        }
    }
}